{
	"contracts/ExampleTryCatch.sol": {
		"ErrorHandling": {
			"abi": [
				{
					"anonymous": false,
					"inputs": [
						{
							"indexed": false,
							"internalType": "uint256",
							"name": "code",
							"type": "uint256"
						}
					],
					"name": "ErrorLogCode",
					"type": "event"
				},
				{
					"anonymous": false,
					"inputs": [
						{
							"indexed": false,
							"internalType": "string",
							"name": "reason",
							"type": "string"
						}
					],
					"name": "ErrorLogging",
					"type": "event"
				},
				{
					"inputs": [],
					"name": "catchTheError",
					"outputs": [],
					"stateMutability": "nonpayable",
					"type": "function"
				}
			],
			"devdoc": {
				"kind": "dev",
				"methods": {},
				"version": 1
			},
			"evm": {
				"assembly": "    /* \"contracts/ExampleTryCatch.sol\":167:603  contract ErrorHandling {... */\n  mstore(0x40, 0x80)\n  callvalue\n  dup1\n  iszero\n  tag_1\n  jumpi\n  0x00\n  dup1\n  revert\ntag_1:\n  pop\n  dataSize(sub_0)\n  dup1\n  dataOffset(sub_0)\n  0x00\n  codecopy\n  0x00\n  return\nstop\n\nsub_0: assembly {\n        /* \"contracts/ExampleTryCatch.sol\":167:603  contract ErrorHandling {... */\n      mstore(0x40, 0x80)\n      callvalue\n      dup1\n      iszero\n      tag_1\n      jumpi\n      0x00\n      dup1\n      revert\n    tag_1:\n      pop\n      jumpi(tag_2, lt(calldatasize, 0x04))\n      shr(0xe0, calldataload(0x00))\n      dup1\n      0x9e957cf8\n      eq\n      tag_3\n      jumpi\n    tag_2:\n      0x00\n      dup1\n      revert\n        /* \"contracts/ExampleTryCatch.sol\":270:601  function catchTheError() public {... */\n    tag_3:\n      tag_4\n      tag_5\n      jump\t// in\n    tag_4:\n      stop\n    tag_5:\n        /* \"contracts/ExampleTryCatch.sol\":312:326  WillThrow will */\n      0x00\n        /* \"contracts/ExampleTryCatch.sol\":329:344  new WillThrow() */\n      mload(0x40)\n      tag_7\n      swap1\n      tag_8\n      jump\t// in\n    tag_7:\n      mload(0x40)\n      dup1\n      swap2\n      sub\n      swap1\n      0x00\n      create\n      dup1\n      iszero\n      dup1\n      iszero\n      tag_9\n      jumpi\n      returndatasize\n      0x00\n      dup1\n      returndatacopy\n      revert(0x00, returndatasize)\n    tag_9:\n      pop\n        /* \"contracts/ExampleTryCatch.sol\":312:344  WillThrow will = new WillThrow() */\n      swap1\n      pop\n        /* \"contracts/ExampleTryCatch.sol\":358:362  will */\n      dup1\n        /* \"contracts/ExampleTryCatch.sol\":358:372  will.aFunction */\n      0xffffffffffffffffffffffffffffffffffffffff\n      and\n      0x39c117a4\n        /* \"contracts/ExampleTryCatch.sol\":358:374  will.aFunction() */\n      mload(0x40)\n      dup2\n      0xffffffff\n      and\n      0xe0\n      shl\n      dup2\n      mstore\n      0x04\n      add\n      0x00\n      mload(0x40)\n      dup1\n      dup4\n      sub\n      dup2\n      dup7\n      dup1\n      extcodesize\n      iszero\n      dup1\n      iszero\n      tag_10\n      jumpi\n      0x00\n      dup1\n      revert\n    tag_10:\n      pop\n      gas\n      staticcall\n      swap3\n      pop\n      pop\n      pop\n      dup1\n      iszero\n      tag_11\n      jumpi\n      pop\n      0x01\n    tag_11:\n        /* \"contracts/ExampleTryCatch.sol\":354:595  try will.aFunction() {... */\n      tag_12\n      jumpi\n      tag_16\n      tag_17\n      jump\t// in\n    tag_16:\n      dup1\n      0x08c379a0\n      sub\n      tag_15\n      jumpi\n      pop\n      tag_18\n      tag_19\n      jump\t// in\n    tag_18:\n      dup1\n      tag_20\n      jumpi\n      pop\n      jump(tag_14)\n    tag_20:\n        /* \"contracts/ExampleTryCatch.sol\":481:501  ErrorLogging(reason) */\n      0xdcbe72357183be3854887085e70fd914c4c1733a94106878f48e8ba069d8fabc\n        /* \"contracts/ExampleTryCatch.sol\":494:500  reason */\n      dup2\n        /* \"contracts/ExampleTryCatch.sol\":481:501  ErrorLogging(reason) */\n      mload(0x40)\n      tag_21\n      swap2\n      swap1\n      tag_22\n      jump\t// in\n    tag_21:\n      mload(0x40)\n      dup1\n      swap2\n      sub\n      swap1\n      log1\n        /* \"contracts/ExampleTryCatch.sol\":428:512  catch Error(string memory reason) {... */\n      pop\n        /* \"contracts/ExampleTryCatch.sol\":354:595  try will.aFunction() {... */\n      jump(tag_13)\n    tag_15:\n      0x4e487b71\n      sub\n      tag_14\n      jumpi\n      tag_23\n      tag_24\n      jump\t// in\n    tag_23:\n      swap1\n      tag_25\n      jumpi\n      pop\n      jump(tag_14)\n    tag_25:\n        /* \"contracts/ExampleTryCatch.sol\":561:584  ErrorLogCode(errorCode) */\n      0x29b40167f3248a50a300e50f3ea6088477baca03aa8065424bd02d92d8b87970\n        /* \"contracts/ExampleTryCatch.sol\":574:583  errorCode */\n      dup2\n        /* \"contracts/ExampleTryCatch.sol\":561:584  ErrorLogCode(errorCode) */\n      mload(0x40)\n      tag_26\n      swap2\n      swap1\n      tag_27\n      jump\t// in\n    tag_26:\n      mload(0x40)\n      dup1\n      swap2\n      sub\n      swap1\n      log1\n        /* \"contracts/ExampleTryCatch.sol\":513:595  catch Panic (uint errorCode) {... */\n      pop\n        /* \"contracts/ExampleTryCatch.sol\":354:595  try will.aFunction() {... */\n      jump(tag_13)\n    tag_14:\n      returndatasize\n      0x00\n      dup1\n      returndatacopy\n      revert(0x00, returndatasize)\n    tag_13:\n      jump(tag_28)\n    tag_12:\n    tag_28:\n        /* \"contracts/ExampleTryCatch.sol\":302:601  {... */\n      pop\n        /* \"contracts/ExampleTryCatch.sol\":270:601  function catchTheError() public {... */\n      jump\t// out\n    tag_8:\n      dataSize(sub_0)\n      dup1\n      dataOffset(sub_0)\n      dup4\n      codecopy\n      add\n      swap1\n      jump\t// out\n        /* \"#utility.yul\":7:113   */\n    tag_29:\n        /* \"#utility.yul\":51:59   */\n      0x00\n        /* \"#utility.yul\":100:105   */\n      dup2\n        /* \"#utility.yul\":95:98   */\n      0xe0\n        /* \"#utility.yul\":91:106   */\n      shr\n        /* \"#utility.yul\":70:106   */\n      swap1\n      pop\n        /* \"#utility.yul\":7:113   */\n      swap2\n      swap1\n      pop\n      jump\t// out\n        /* \"#utility.yul\":119:302   */\n    tag_17:\n        /* \"#utility.yul\":154:157   */\n      0x00\n        /* \"#utility.yul\":192:193   */\n      0x03\n        /* \"#utility.yul\":174:190   */\n      returndatasize\n        /* \"#utility.yul\":171:194   */\n      gt\n        /* \"#utility.yul\":168:296   */\n      iszero\n      tag_43\n      jumpi\n        /* \"#utility.yul\":230:231   */\n      0x04\n        /* \"#utility.yul\":227:228   */\n      0x00\n        /* \"#utility.yul\":224:225   */\n      dup1\n        /* \"#utility.yul\":209:232   */\n      returndatacopy\n        /* \"#utility.yul\":252:286   */\n      tag_44\n        /* \"#utility.yul\":283:284   */\n      0x00\n        /* \"#utility.yul\":277:285   */\n      mload\n        /* \"#utility.yul\":252:286   */\n      tag_29\n      jump\t// in\n    tag_44:\n        /* \"#utility.yul\":245:286   */\n      swap1\n      pop\n        /* \"#utility.yul\":168:296   */\n    tag_43:\n        /* \"#utility.yul\":119:302   */\n      swap1\n      jump\t// out\n        /* \"#utility.yul\":308:383   */\n    tag_30:\n        /* \"#utility.yul\":341:347   */\n      0x00\n        /* \"#utility.yul\":374:376   */\n      0x40\n        /* \"#utility.yul\":368:377   */\n      mload\n        /* \"#utility.yul\":358:377   */\n      swap1\n      pop\n        /* \"#utility.yul\":308:383   */\n      swap1\n      jump\t// out\n        /* \"#utility.yul\":389:491   */\n    tag_31:\n        /* \"#utility.yul\":430:436   */\n      0x00\n        /* \"#utility.yul\":481:483   */\n      0x1f\n        /* \"#utility.yul\":477:484   */\n      not\n        /* \"#utility.yul\":472:474   */\n      0x1f\n        /* \"#utility.yul\":465:470   */\n      dup4\n        /* \"#utility.yul\":461:475   */\n      add\n        /* \"#utility.yul\":457:485   */\n      and\n        /* \"#utility.yul\":447:485   */\n      swap1\n      pop\n        /* \"#utility.yul\":389:491   */\n      swap2\n      swap1\n      pop\n      jump\t// out\n        /* \"#utility.yul\":497:677   */\n    tag_32:\n        /* \"#utility.yul\":545:622   */\n      0x4e487b7100000000000000000000000000000000000000000000000000000000\n        /* \"#utility.yul\":542:543   */\n      0x00\n        /* \"#utility.yul\":535:623   */\n      mstore\n        /* \"#utility.yul\":642:646   */\n      0x41\n        /* \"#utility.yul\":639:640   */\n      0x04\n        /* \"#utility.yul\":632:647   */\n      mstore\n        /* \"#utility.yul\":666:670   */\n      0x24\n        /* \"#utility.yul\":663:664   */\n      0x00\n        /* \"#utility.yul\":656:671   */\n      revert\n        /* \"#utility.yul\":683:964   */\n    tag_33:\n        /* \"#utility.yul\":766:793   */\n      tag_49\n        /* \"#utility.yul\":788:792   */\n      dup3\n        /* \"#utility.yul\":766:793   */\n      tag_31\n      jump\t// in\n    tag_49:\n        /* \"#utility.yul\":758:764   */\n      dup2\n        /* \"#utility.yul\":754:794   */\n      add\n        /* \"#utility.yul\":896:902   */\n      dup2\n        /* \"#utility.yul\":884:894   */\n      dup2\n        /* \"#utility.yul\":881:903   */\n      lt\n        /* \"#utility.yul\":860:878   */\n      0xffffffffffffffff\n        /* \"#utility.yul\":848:858   */\n      dup3\n        /* \"#utility.yul\":845:879   */\n      gt\n        /* \"#utility.yul\":842:904   */\n      or\n        /* \"#utility.yul\":839:927   */\n      iszero\n      tag_50\n      jumpi\n        /* \"#utility.yul\":907:925   */\n      tag_51\n      tag_32\n      jump\t// in\n    tag_51:\n        /* \"#utility.yul\":839:927   */\n    tag_50:\n        /* \"#utility.yul\":947:957   */\n      dup1\n        /* \"#utility.yul\":943:945   */\n      0x40\n        /* \"#utility.yul\":936:958   */\n      mstore\n        /* \"#utility.yul\":726:964   */\n      pop\n        /* \"#utility.yul\":683:964   */\n      pop\n      pop\n      jump\t// out\n        /* \"#utility.yul\":970:1681   */\n    tag_19:\n        /* \"#utility.yul\":1009:1012   */\n      0x00\n        /* \"#utility.yul\":1047:1051   */\n      0x44\n        /* \"#utility.yul\":1029:1045   */\n      returndatasize\n        /* \"#utility.yul\":1026:1052   */\n      lt\n        /* \"#utility.yul\":1055:1060   */\n      tag_52\n        /* \"#utility.yul\":1023:1062   */\n      jumpi\n        /* \"#utility.yul\":1084:1104   */\n      tag_54\n      tag_30\n      jump\t// in\n    tag_54:\n        /* \"#utility.yul\":1159:1160   */\n      0x04\n        /* \"#utility.yul\":1141:1157   */\n      returndatasize\n        /* \"#utility.yul\":1137:1161   */\n      sub\n        /* \"#utility.yul\":1134:1135   */\n      0x04\n        /* \"#utility.yul\":1128:1132   */\n      dup3\n        /* \"#utility.yul\":1113:1162   */\n      returndatacopy\n        /* \"#utility.yul\":1192:1196   */\n      dup1\n        /* \"#utility.yul\":1186:1197   */\n      mload\n        /* \"#utility.yul\":1291:1307   */\n      returndatasize\n        /* \"#utility.yul\":1284:1288   */\n      0x24\n        /* \"#utility.yul\":1276:1282   */\n      dup3\n        /* \"#utility.yul\":1272:1289   */\n      add\n        /* \"#utility.yul\":1269:1308   */\n      gt\n        /* \"#utility.yul\":1236:1254   */\n      0xffffffffffffffff\n        /* \"#utility.yul\":1228:1234   */\n      dup3\n        /* \"#utility.yul\":1225:1255   */\n      gt\n        /* \"#utility.yul\":1209:1322   */\n      or\n        /* \"#utility.yul\":1206:1352   */\n      iszero\n      tag_55\n      jumpi\n        /* \"#utility.yul\":1337:1342   */\n      pop\n      pop\n      jump(tag_52)\n        /* \"#utility.yul\":1206:1352   */\n    tag_55:\n        /* \"#utility.yul\":1383:1389   */\n      dup1\n        /* \"#utility.yul\":1377:1381   */\n      dup3\n        /* \"#utility.yul\":1373:1390   */\n      add\n        /* \"#utility.yul\":1419:1422   */\n      dup1\n        /* \"#utility.yul\":1413:1423   */\n      mload\n        /* \"#utility.yul\":1446:1464   */\n      0xffffffffffffffff\n        /* \"#utility.yul\":1438:1444   */\n      dup2\n        /* \"#utility.yul\":1435:1465   */\n      gt\n        /* \"#utility.yul\":1432:1475   */\n      iszero\n      tag_56\n      jumpi\n        /* \"#utility.yul\":1468:1473   */\n      pop\n      pop\n      pop\n      pop\n      jump(tag_52)\n        /* \"#utility.yul\":1432:1475   */\n    tag_56:\n        /* \"#utility.yul\":1516:1522   */\n      dup1\n        /* \"#utility.yul\":1509:1513   */\n      0x20\n        /* \"#utility.yul\":1504:1507   */\n      dup4\n        /* \"#utility.yul\":1500:1514   */\n      add\n        /* \"#utility.yul\":1496:1523   */\n      add\n        /* \"#utility.yul\":1575:1576   */\n      0x04\n        /* \"#utility.yul\":1557:1573   */\n      returndatasize\n        /* \"#utility.yul\":1553:1577   */\n      sub\n        /* \"#utility.yul\":1547:1551   */\n      dup6\n        /* \"#utility.yul\":1543:1578   */\n      add\n        /* \"#utility.yul\":1538:1541   */\n      dup2\n        /* \"#utility.yul\":1535:1579   */\n      gt\n        /* \"#utility.yul\":1532:1589   */\n      iszero\n      tag_57\n      jumpi\n        /* \"#utility.yul\":1582:1587   */\n      pop\n      pop\n      pop\n      pop\n      pop\n      jump(tag_52)\n        /* \"#utility.yul\":1532:1589   */\n    tag_57:\n        /* \"#utility.yul\":1599:1656   */\n      tag_58\n        /* \"#utility.yul\":1647:1653   */\n      dup3\n        /* \"#utility.yul\":1641:1645   */\n      0x20\n        /* \"#utility.yul\":1637:1654   */\n      add\n        /* \"#utility.yul\":1629:1635   */\n      dup6\n        /* \"#utility.yul\":1625:1655   */\n      add\n        /* \"#utility.yul\":1619:1623   */\n      dup7\n        /* \"#utility.yul\":1599:1656   */\n      tag_33\n      jump\t// in\n    tag_58:\n        /* \"#utility.yul\":1672:1675   */\n      dup3\n        /* \"#utility.yul\":1665:1675   */\n      swap6\n      pop\n        /* \"#utility.yul\":1013:1681   */\n      pop\n      pop\n      pop\n      pop\n      pop\n        /* \"#utility.yul\":970:1681   */\n    tag_52:\n      swap1\n      jump\t// out\n        /* \"#utility.yul\":1687:1786   */\n    tag_34:\n        /* \"#utility.yul\":1739:1745   */\n      0x00\n        /* \"#utility.yul\":1773:1778   */\n      dup2\n        /* \"#utility.yul\":1767:1779   */\n      mload\n        /* \"#utility.yul\":1757:1779   */\n      swap1\n      pop\n        /* \"#utility.yul\":1687:1786   */\n      swap2\n      swap1\n      pop\n      jump\t// out\n        /* \"#utility.yul\":1792:1961   */\n    tag_35:\n        /* \"#utility.yul\":1876:1887   */\n      0x00\n        /* \"#utility.yul\":1910:1916   */\n      dup3\n        /* \"#utility.yul\":1905:1908   */\n      dup3\n        /* \"#utility.yul\":1898:1917   */\n      mstore\n        /* \"#utility.yul\":1950:1954   */\n      0x20\n        /* \"#utility.yul\":1945:1948   */\n      dup3\n        /* \"#utility.yul\":1941:1955   */\n      add\n        /* \"#utility.yul\":1926:1955   */\n      swap1\n      pop\n        /* \"#utility.yul\":1792:1961   */\n      swap3\n      swap2\n      pop\n      pop\n      jump\t// out\n        /* \"#utility.yul\":1967:2274   */\n    tag_36:\n        /* \"#utility.yul\":2035:2036   */\n      0x00\n        /* \"#utility.yul\":2045:2158   */\n    tag_62:\n        /* \"#utility.yul\":2059:2065   */\n      dup4\n        /* \"#utility.yul\":2056:2057   */\n      dup2\n        /* \"#utility.yul\":2053:2066   */\n      lt\n        /* \"#utility.yul\":2045:2158   */\n      iszero\n      tag_64\n      jumpi\n        /* \"#utility.yul\":2144:2145   */\n      dup1\n        /* \"#utility.yul\":2139:2142   */\n      dup3\n        /* \"#utility.yul\":2135:2146   */\n      add\n        /* \"#utility.yul\":2129:2147   */\n      mload\n        /* \"#utility.yul\":2125:2126   */\n      dup2\n        /* \"#utility.yul\":2120:2123   */\n      dup5\n        /* \"#utility.yul\":2116:2127   */\n      add\n        /* \"#utility.yul\":2109:2148   */\n      mstore\n        /* \"#utility.yul\":2081:2083   */\n      0x20\n        /* \"#utility.yul\":2078:2079   */\n      dup2\n        /* \"#utility.yul\":2074:2084   */\n      add\n        /* \"#utility.yul\":2069:2084   */\n      swap1\n      pop\n        /* \"#utility.yul\":2045:2158   */\n      jump(tag_62)\n    tag_64:\n        /* \"#utility.yul\":2176:2182   */\n      dup4\n        /* \"#utility.yul\":2173:2174   */\n      dup2\n        /* \"#utility.yul\":2170:2183   */\n      gt\n        /* \"#utility.yul\":2167:2268   */\n      iszero\n      tag_65\n      jumpi\n        /* \"#utility.yul\":2256:2257   */\n      0x00\n        /* \"#utility.yul\":2247:2253   */\n      dup5\n        /* \"#utility.yul\":2242:2245   */\n      dup5\n        /* \"#utility.yul\":2238:2254   */\n      add\n        /* \"#utility.yul\":2231:2258   */\n      mstore\n        /* \"#utility.yul\":2167:2268   */\n    tag_65:\n        /* \"#utility.yul\":2016:2274   */\n      pop\n        /* \"#utility.yul\":1967:2274   */\n      pop\n      pop\n      pop\n      jump\t// out\n        /* \"#utility.yul\":2280:2644   */\n    tag_37:\n        /* \"#utility.yul\":2368:2371   */\n      0x00\n        /* \"#utility.yul\":2396:2435   */\n      tag_67\n        /* \"#utility.yul\":2429:2434   */\n      dup3\n        /* \"#utility.yul\":2396:2435   */\n      tag_34\n      jump\t// in\n    tag_67:\n        /* \"#utility.yul\":2451:2522   */\n      tag_68\n        /* \"#utility.yul\":2515:2521   */\n      dup2\n        /* \"#utility.yul\":2510:2513   */\n      dup6\n        /* \"#utility.yul\":2451:2522   */\n      tag_35\n      jump\t// in\n    tag_68:\n        /* \"#utility.yul\":2444:2522   */\n      swap4\n      pop\n        /* \"#utility.yul\":2531:2583   */\n      tag_69\n        /* \"#utility.yul\":2576:2582   */\n      dup2\n        /* \"#utility.yul\":2571:2574   */\n      dup6\n        /* \"#utility.yul\":2564:2568   */\n      0x20\n        /* \"#utility.yul\":2557:2562   */\n      dup7\n        /* \"#utility.yul\":2553:2569   */\n      add\n        /* \"#utility.yul\":2531:2583   */\n      tag_36\n      jump\t// in\n    tag_69:\n        /* \"#utility.yul\":2608:2637   */\n      tag_70\n        /* \"#utility.yul\":2630:2636   */\n      dup2\n        /* \"#utility.yul\":2608:2637   */\n      tag_31\n      jump\t// in\n    tag_70:\n        /* \"#utility.yul\":2603:2606   */\n      dup5\n        /* \"#utility.yul\":2599:2638   */\n      add\n        /* \"#utility.yul\":2592:2638   */\n      swap2\n      pop\n        /* \"#utility.yul\":2372:2644   */\n      pop\n        /* \"#utility.yul\":2280:2644   */\n      swap3\n      swap2\n      pop\n      pop\n      jump\t// out\n        /* \"#utility.yul\":2650:2963   */\n    tag_22:\n        /* \"#utility.yul\":2763:2767   */\n      0x00\n        /* \"#utility.yul\":2801:2803   */\n      0x20\n        /* \"#utility.yul\":2790:2799   */\n      dup3\n        /* \"#utility.yul\":2786:2804   */\n      add\n        /* \"#utility.yul\":2778:2804   */\n      swap1\n      pop\n        /* \"#utility.yul\":2850:2859   */\n      dup2\n        /* \"#utility.yul\":2844:2848   */\n      dup2\n        /* \"#utility.yul\":2840:2860   */\n      sub\n        /* \"#utility.yul\":2836:2837   */\n      0x00\n        /* \"#utility.yul\":2825:2834   */\n      dup4\n        /* \"#utility.yul\":2821:2838   */\n      add\n        /* \"#utility.yul\":2814:2861   */\n      mstore\n        /* \"#utility.yul\":2878:2956   */\n      tag_72\n        /* \"#utility.yul\":2951:2955   */\n      dup2\n        /* \"#utility.yul\":2942:2948   */\n      dup5\n        /* \"#utility.yul\":2878:2956   */\n      tag_37\n      jump\t// in\n    tag_72:\n        /* \"#utility.yul\":2870:2956   */\n      swap1\n      pop\n        /* \"#utility.yul\":2650:2963   */\n      swap3\n      swap2\n      pop\n      pop\n      jump\t// out\n        /* \"#utility.yul\":2969:3169   */\n    tag_24:\n        /* \"#utility.yul\":3005:3012   */\n      0x00\n        /* \"#utility.yul\":3014:3018   */\n      dup1\n        /* \"#utility.yul\":3053:3057   */\n      0x23\n        /* \"#utility.yul\":3035:3051   */\n      returndatasize\n        /* \"#utility.yul\":3032:3058   */\n      gt\n        /* \"#utility.yul\":3029:3163   */\n      iszero\n      tag_74\n      jumpi\n        /* \"#utility.yul\":3094:3098   */\n      0x20\n        /* \"#utility.yul\":3091:3092   */\n      0x04\n        /* \"#utility.yul\":3088:3089   */\n      0x00\n        /* \"#utility.yul\":3073:3099   */\n      returndatacopy\n        /* \"#utility.yul\":3123:3124   */\n      0x01\n        /* \"#utility.yul\":3112:3124   */\n      swap2\n      pop\n        /* \"#utility.yul\":3151:3152   */\n      0x00\n        /* \"#utility.yul\":3145:3153   */\n      mload\n        /* \"#utility.yul\":3137:3153   */\n      swap1\n      pop\n        /* \"#utility.yul\":3029:3163   */\n    tag_74:\n        /* \"#utility.yul\":2969:3169   */\n      swap1\n      swap2\n      jump\t// out\n        /* \"#utility.yul\":3175:3252   */\n    tag_38:\n        /* \"#utility.yul\":3212:3219   */\n      0x00\n        /* \"#utility.yul\":3241:3246   */\n      dup2\n        /* \"#utility.yul\":3230:3246   */\n      swap1\n      pop\n        /* \"#utility.yul\":3175:3252   */\n      swap2\n      swap1\n      pop\n      jump\t// out\n        /* \"#utility.yul\":3258:3376   */\n    tag_39:\n        /* \"#utility.yul\":3345:3369   */\n      tag_77\n        /* \"#utility.yul\":3363:3368   */\n      dup2\n        /* \"#utility.yul\":3345:3369   */\n      tag_38\n      jump\t// in\n    tag_77:\n        /* \"#utility.yul\":3340:3343   */\n      dup3\n        /* \"#utility.yul\":3333:3370   */\n      mstore\n        /* \"#utility.yul\":3258:3376   */\n      pop\n      pop\n      jump\t// out\n        /* \"#utility.yul\":3382:3604   */\n    tag_27:\n        /* \"#utility.yul\":3475:3479   */\n      0x00\n        /* \"#utility.yul\":3513:3515   */\n      0x20\n        /* \"#utility.yul\":3502:3511   */\n      dup3\n        /* \"#utility.yul\":3498:3516   */\n      add\n        /* \"#utility.yul\":3490:3516   */\n      swap1\n      pop\n        /* \"#utility.yul\":3526:3597   */\n      tag_79\n        /* \"#utility.yul\":3594:3595   */\n      0x00\n        /* \"#utility.yul\":3583:3592   */\n      dup4\n        /* \"#utility.yul\":3579:3596   */\n      add\n        /* \"#utility.yul\":3570:3576   */\n      dup5\n        /* \"#utility.yul\":3526:3597   */\n      tag_39\n      jump\t// in\n    tag_79:\n        /* \"#utility.yul\":3382:3604   */\n      swap3\n      swap2\n      pop\n      pop\n      jump\t// out\n    stop\n\n    sub_0: assembly {\n            /* \"contracts/ExampleTryCatch.sol\":57:165  contract WillThrow {... */\n          mstore(0x40, 0x80)\n          callvalue\n          dup1\n          iszero\n          tag_1\n          jumpi\n          0x00\n          dup1\n          revert\n        tag_1:\n          pop\n          dataSize(sub_0)\n          dup1\n          dataOffset(sub_0)\n          0x00\n          codecopy\n          0x00\n          return\n        stop\n\n        sub_0: assembly {\n                /* \"contracts/ExampleTryCatch.sol\":57:165  contract WillThrow {... */\n              mstore(0x40, 0x80)\n              callvalue\n              dup1\n              iszero\n              tag_1\n              jumpi\n              0x00\n              dup1\n              revert\n            tag_1:\n              pop\n              jumpi(tag_2, lt(calldatasize, 0x04))\n              shr(0xe0, calldataload(0x00))\n              dup1\n              0x39c117a4\n              eq\n              tag_3\n              jumpi\n            tag_2:\n              0x00\n              dup1\n              revert\n                /* \"contracts/ExampleTryCatch.sol\":82:163  function aFunction() public pure {... */\n            tag_3:\n              tag_4\n              tag_5\n              jump\t// in\n            tag_4:\n              stop\n            tag_5:\n                /* \"contracts/ExampleTryCatch.sol\":133:138  false */\n              0x00\n                /* \"contracts/ExampleTryCatch.sol\":125:156  require(false, \"Error message\") */\n              tag_7\n              jumpi\n              mload(0x40)\n              0x08c379a000000000000000000000000000000000000000000000000000000000\n              dup2\n              mstore\n              0x04\n              add\n              tag_8\n              swap1\n              tag_9\n              jump\t// in\n            tag_8:\n              mload(0x40)\n              dup1\n              swap2\n              sub\n              swap1\n              revert\n            tag_7:\n                /* \"contracts/ExampleTryCatch.sol\":82:163  function aFunction() public pure {... */\n              jump\t// out\n                /* \"#utility.yul\":7:176   */\n            tag_10:\n                /* \"#utility.yul\":91:102   */\n              0x00\n                /* \"#utility.yul\":125:131   */\n              dup3\n                /* \"#utility.yul\":120:123   */\n              dup3\n                /* \"#utility.yul\":113:132   */\n              mstore\n                /* \"#utility.yul\":165:169   */\n              0x20\n                /* \"#utility.yul\":160:163   */\n              dup3\n                /* \"#utility.yul\":156:170   */\n              add\n                /* \"#utility.yul\":141:170   */\n              swap1\n              pop\n                /* \"#utility.yul\":7:176   */\n              swap3\n              swap2\n              pop\n              pop\n              jump\t// out\n                /* \"#utility.yul\":182:345   */\n            tag_11:\n                /* \"#utility.yul\":322:337   */\n              0x4572726f72206d65737361676500000000000000000000000000000000000000\n                /* \"#utility.yul\":318:319   */\n              0x00\n                /* \"#utility.yul\":310:316   */\n              dup3\n                /* \"#utility.yul\":306:320   */\n              add\n                /* \"#utility.yul\":299:338   */\n              mstore\n                /* \"#utility.yul\":182:345   */\n              pop\n              jump\t// out\n                /* \"#utility.yul\":351:717   */\n            tag_12:\n                /* \"#utility.yul\":493:496   */\n              0x00\n                /* \"#utility.yul\":514:581   */\n              tag_17\n                /* \"#utility.yul\":578:580   */\n              0x0d\n                /* \"#utility.yul\":573:576   */\n              dup4\n                /* \"#utility.yul\":514:581   */\n              tag_10\n              jump\t// in\n            tag_17:\n                /* \"#utility.yul\":507:581   */\n              swap2\n              pop\n                /* \"#utility.yul\":590:683   */\n              tag_18\n                /* \"#utility.yul\":679:682   */\n              dup3\n                /* \"#utility.yul\":590:683   */\n              tag_11\n              jump\t// in\n            tag_18:\n                /* \"#utility.yul\":708:710   */\n              0x20\n                /* \"#utility.yul\":703:706   */\n              dup3\n                /* \"#utility.yul\":699:711   */\n              add\n                /* \"#utility.yul\":692:711   */\n              swap1\n              pop\n                /* \"#utility.yul\":351:717   */\n              swap2\n              swap1\n              pop\n              jump\t// out\n                /* \"#utility.yul\":723:1142   */\n            tag_9:\n                /* \"#utility.yul\":889:893   */\n              0x00\n                /* \"#utility.yul\":927:929   */\n              0x20\n                /* \"#utility.yul\":916:925   */\n              dup3\n                /* \"#utility.yul\":912:930   */\n              add\n                /* \"#utility.yul\":904:930   */\n              swap1\n              pop\n                /* \"#utility.yul\":976:985   */\n              dup2\n                /* \"#utility.yul\":970:974   */\n              dup2\n                /* \"#utility.yul\":966:986   */\n              sub\n                /* \"#utility.yul\":962:963   */\n              0x00\n                /* \"#utility.yul\":951:960   */\n              dup4\n                /* \"#utility.yul\":947:964   */\n              add\n                /* \"#utility.yul\":940:987   */\n              mstore\n                /* \"#utility.yul\":1004:1135   */\n              tag_20\n                /* \"#utility.yul\":1130:1134   */\n              dup2\n                /* \"#utility.yul\":1004:1135   */\n              tag_12\n              jump\t// in\n            tag_20:\n                /* \"#utility.yul\":996:1135   */\n              swap1\n              pop\n                /* \"#utility.yul\":723:1142   */\n              swap2\n              swap1\n              pop\n              jump\t// out\n\n            auxdata: 0xa2646970667358221220caf558c74b65c41fb47083b9c332db4b4144ec13941dd8d172657807d0b2826e64736f6c634300080f0033\n        }\n    }\n\n    auxdata: 0xa2646970667358221220911e02589ddb488fc8c9672d0c56ccece451cc4a85ac48747bc642a50babfe7664736f6c634300080f0033\n}\n",
				"bytecode": {
					"linkReferences": {},
					"object": "608060405234801561001057600080fd5b50610551806100206000396000f3fe608060405234801561001057600080fd5b506004361061002b5760003560e01c80639e957cf814610030575b600080fd5b61003861003a565b005b600060405161004890610193565b604051809103906000f080158015610064573d6000803e3d6000fd5b5090508073ffffffffffffffffffffffffffffffffffffffff166339c117a46040518163ffffffff1660e01b815260040160006040518083038186803b1580156100ad57600080fd5b505afa9250505080156100be575060015b61018f576100ca6101ad565b806308c379a00361012657506100de61024a565b806100e95750610180565b7fdcbe72357183be3854887085e70fd914c4c1733a94106878f48e8ba069d8fabc816040516101189190610362565b60405180910390a15061018a565b634e487b710361018057610138610384565b906101435750610180565b7f29b40167f3248a50a300e50f3ea6088477baca03aa8065424bd02d92d8b879708160405161017291906103be565b60405180910390a15061018a565b3d6000803e3d6000fd5b610190565b5b50565b610142806103da83390190565b60008160e01c9050919050565b600060033d11156101cc5760046000803e6101c96000516101a0565b90505b90565b6000604051905090565b6000601f19601f8301169050919050565b7f4e487b7100000000000000000000000000000000000000000000000000000000600052604160045260246000fd5b610222826101d9565b810181811067ffffffffffffffff82111715610241576102406101ea565b5b80604052505050565b600060443d106102d75761025c6101cf565b60043d036004823e80513d602482011167ffffffffffffffff821117156102845750506102d7565b808201805167ffffffffffffffff8111156102a257505050506102d7565b80602083010160043d0385018111156102bf5750505050506102d7565b6102ce82602001850186610219565b82955050505050505b90565b600081519050919050565b600082825260208201905092915050565b60005b838110156103145780820151818401526020810190506102f9565b83811115610323576000848401525b50505050565b6000610334826102da565b61033e81856102e5565b935061034e8185602086016102f6565b610357816101d9565b840191505092915050565b6000602082019050818103600083015261037c8184610329565b905092915050565b60008060233d11156103a1576020600460003e6001915060005190505b9091565b6000819050919050565b6103b8816103a5565b82525050565b60006020820190506103d360008301846103af565b9291505056fe608060405234801561001057600080fd5b50610122806100206000396000f3fe6080604052348015600f57600080fd5b506004361060285760003560e01c806339c117a414602d575b600080fd5b60336035565b005b60006073576040517f08c379a0000000000000000000000000000000000000000000000000000000008152600401606a9060ce565b60405180910390fd5b565b600082825260208201905092915050565b7f4572726f72206d65737361676500000000000000000000000000000000000000600082015250565b600060ba600d836075565b915060c3826086565b602082019050919050565b6000602082019050818103600083015260e58160af565b905091905056fea2646970667358221220caf558c74b65c41fb47083b9c332db4b4144ec13941dd8d172657807d0b2826e64736f6c634300080f0033a2646970667358221220911e02589ddb488fc8c9672d0c56ccece451cc4a85ac48747bc642a50babfe7664736f6c634300080f0033",
					"opcodes": "PUSH1 0x80 PUSH1 0x40 MSTORE CALLVALUE DUP1 ISZERO PUSH2 0x10 JUMPI PUSH1 0x0 DUP1 REVERT JUMPDEST POP PUSH2 0x551 DUP1 PUSH2 0x20 PUSH1 0x0 CODECOPY PUSH1 0x0 RETURN INVALID PUSH1 0x80 PUSH1 0x40 MSTORE CALLVALUE DUP1 ISZERO PUSH2 0x10 JUMPI PUSH1 0x0 DUP1 REVERT JUMPDEST POP PUSH1 0x4 CALLDATASIZE LT PUSH2 0x2B JUMPI PUSH1 0x0 CALLDATALOAD PUSH1 0xE0 SHR DUP1 PUSH4 0x9E957CF8 EQ PUSH2 0x30 JUMPI JUMPDEST PUSH1 0x0 DUP1 REVERT JUMPDEST PUSH2 0x38 PUSH2 0x3A JUMP JUMPDEST STOP JUMPDEST PUSH1 0x0 PUSH1 0x40 MLOAD PUSH2 0x48 SWAP1 PUSH2 0x193 JUMP JUMPDEST PUSH1 0x40 MLOAD DUP1 SWAP2 SUB SWAP1 PUSH1 0x0 CREATE DUP1 ISZERO DUP1 ISZERO PUSH2 0x64 JUMPI RETURNDATASIZE PUSH1 0x0 DUP1 RETURNDATACOPY RETURNDATASIZE PUSH1 0x0 REVERT JUMPDEST POP SWAP1 POP DUP1 PUSH20 0xFFFFFFFFFFFFFFFFFFFFFFFFFFFFFFFFFFFFFFFF AND PUSH4 0x39C117A4 PUSH1 0x40 MLOAD DUP2 PUSH4 0xFFFFFFFF AND PUSH1 0xE0 SHL DUP2 MSTORE PUSH1 0x4 ADD PUSH1 0x0 PUSH1 0x40 MLOAD DUP1 DUP4 SUB DUP2 DUP7 DUP1 EXTCODESIZE ISZERO DUP1 ISZERO PUSH2 0xAD JUMPI PUSH1 0x0 DUP1 REVERT JUMPDEST POP GAS STATICCALL SWAP3 POP POP POP DUP1 ISZERO PUSH2 0xBE JUMPI POP PUSH1 0x1 JUMPDEST PUSH2 0x18F JUMPI PUSH2 0xCA PUSH2 0x1AD JUMP JUMPDEST DUP1 PUSH4 0x8C379A0 SUB PUSH2 0x126 JUMPI POP PUSH2 0xDE PUSH2 0x24A JUMP JUMPDEST DUP1 PUSH2 0xE9 JUMPI POP PUSH2 0x180 JUMP JUMPDEST PUSH32 0xDCBE72357183BE3854887085E70FD914C4C1733A94106878F48E8BA069D8FABC DUP2 PUSH1 0x40 MLOAD PUSH2 0x118 SWAP2 SWAP1 PUSH2 0x362 JUMP JUMPDEST PUSH1 0x40 MLOAD DUP1 SWAP2 SUB SWAP1 LOG1 POP PUSH2 0x18A JUMP JUMPDEST PUSH4 0x4E487B71 SUB PUSH2 0x180 JUMPI PUSH2 0x138 PUSH2 0x384 JUMP JUMPDEST SWAP1 PUSH2 0x143 JUMPI POP PUSH2 0x180 JUMP JUMPDEST PUSH32 0x29B40167F3248A50A300E50F3EA6088477BACA03AA8065424BD02D92D8B87970 DUP2 PUSH1 0x40 MLOAD PUSH2 0x172 SWAP2 SWAP1 PUSH2 0x3BE JUMP JUMPDEST PUSH1 0x40 MLOAD DUP1 SWAP2 SUB SWAP1 LOG1 POP PUSH2 0x18A JUMP JUMPDEST RETURNDATASIZE PUSH1 0x0 DUP1 RETURNDATACOPY RETURNDATASIZE PUSH1 0x0 REVERT JUMPDEST PUSH2 0x190 JUMP JUMPDEST JUMPDEST POP JUMP JUMPDEST PUSH2 0x142 DUP1 PUSH2 0x3DA DUP4 CODECOPY ADD SWAP1 JUMP JUMPDEST PUSH1 0x0 DUP2 PUSH1 0xE0 SHR SWAP1 POP SWAP2 SWAP1 POP JUMP JUMPDEST PUSH1 0x0 PUSH1 0x3 RETURNDATASIZE GT ISZERO PUSH2 0x1CC JUMPI PUSH1 0x4 PUSH1 0x0 DUP1 RETURNDATACOPY PUSH2 0x1C9 PUSH1 0x0 MLOAD PUSH2 0x1A0 JUMP JUMPDEST SWAP1 POP JUMPDEST SWAP1 JUMP JUMPDEST PUSH1 0x0 PUSH1 0x40 MLOAD SWAP1 POP SWAP1 JUMP JUMPDEST PUSH1 0x0 PUSH1 0x1F NOT PUSH1 0x1F DUP4 ADD AND SWAP1 POP SWAP2 SWAP1 POP JUMP JUMPDEST PUSH32 0x4E487B7100000000000000000000000000000000000000000000000000000000 PUSH1 0x0 MSTORE PUSH1 0x41 PUSH1 0x4 MSTORE PUSH1 0x24 PUSH1 0x0 REVERT JUMPDEST PUSH2 0x222 DUP3 PUSH2 0x1D9 JUMP JUMPDEST DUP2 ADD DUP2 DUP2 LT PUSH8 0xFFFFFFFFFFFFFFFF DUP3 GT OR ISZERO PUSH2 0x241 JUMPI PUSH2 0x240 PUSH2 0x1EA JUMP JUMPDEST JUMPDEST DUP1 PUSH1 0x40 MSTORE POP POP POP JUMP JUMPDEST PUSH1 0x0 PUSH1 0x44 RETURNDATASIZE LT PUSH2 0x2D7 JUMPI PUSH2 0x25C PUSH2 0x1CF JUMP JUMPDEST PUSH1 0x4 RETURNDATASIZE SUB PUSH1 0x4 DUP3 RETURNDATACOPY DUP1 MLOAD RETURNDATASIZE PUSH1 0x24 DUP3 ADD GT PUSH8 0xFFFFFFFFFFFFFFFF DUP3 GT OR ISZERO PUSH2 0x284 JUMPI POP POP PUSH2 0x2D7 JUMP JUMPDEST DUP1 DUP3 ADD DUP1 MLOAD PUSH8 0xFFFFFFFFFFFFFFFF DUP2 GT ISZERO PUSH2 0x2A2 JUMPI POP POP POP POP PUSH2 0x2D7 JUMP JUMPDEST DUP1 PUSH1 0x20 DUP4 ADD ADD PUSH1 0x4 RETURNDATASIZE SUB DUP6 ADD DUP2 GT ISZERO PUSH2 0x2BF JUMPI POP POP POP POP POP PUSH2 0x2D7 JUMP JUMPDEST PUSH2 0x2CE DUP3 PUSH1 0x20 ADD DUP6 ADD DUP7 PUSH2 0x219 JUMP JUMPDEST DUP3 SWAP6 POP POP POP POP POP POP JUMPDEST SWAP1 JUMP JUMPDEST PUSH1 0x0 DUP2 MLOAD SWAP1 POP SWAP2 SWAP1 POP JUMP JUMPDEST PUSH1 0x0 DUP3 DUP3 MSTORE PUSH1 0x20 DUP3 ADD SWAP1 POP SWAP3 SWAP2 POP POP JUMP JUMPDEST PUSH1 0x0 JUMPDEST DUP4 DUP2 LT ISZERO PUSH2 0x314 JUMPI DUP1 DUP3 ADD MLOAD DUP2 DUP5 ADD MSTORE PUSH1 0x20 DUP2 ADD SWAP1 POP PUSH2 0x2F9 JUMP JUMPDEST DUP4 DUP2 GT ISZERO PUSH2 0x323 JUMPI PUSH1 0x0 DUP5 DUP5 ADD MSTORE JUMPDEST POP POP POP POP JUMP JUMPDEST PUSH1 0x0 PUSH2 0x334 DUP3 PUSH2 0x2DA JUMP JUMPDEST PUSH2 0x33E DUP2 DUP6 PUSH2 0x2E5 JUMP JUMPDEST SWAP4 POP PUSH2 0x34E DUP2 DUP6 PUSH1 0x20 DUP7 ADD PUSH2 0x2F6 JUMP JUMPDEST PUSH2 0x357 DUP2 PUSH2 0x1D9 JUMP JUMPDEST DUP5 ADD SWAP2 POP POP SWAP3 SWAP2 POP POP JUMP JUMPDEST PUSH1 0x0 PUSH1 0x20 DUP3 ADD SWAP1 POP DUP2 DUP2 SUB PUSH1 0x0 DUP4 ADD MSTORE PUSH2 0x37C DUP2 DUP5 PUSH2 0x329 JUMP JUMPDEST SWAP1 POP SWAP3 SWAP2 POP POP JUMP JUMPDEST PUSH1 0x0 DUP1 PUSH1 0x23 RETURNDATASIZE GT ISZERO PUSH2 0x3A1 JUMPI PUSH1 0x20 PUSH1 0x4 PUSH1 0x0 RETURNDATACOPY PUSH1 0x1 SWAP2 POP PUSH1 0x0 MLOAD SWAP1 POP JUMPDEST SWAP1 SWAP2 JUMP JUMPDEST PUSH1 0x0 DUP2 SWAP1 POP SWAP2 SWAP1 POP JUMP JUMPDEST PUSH2 0x3B8 DUP2 PUSH2 0x3A5 JUMP JUMPDEST DUP3 MSTORE POP POP JUMP JUMPDEST PUSH1 0x0 PUSH1 0x20 DUP3 ADD SWAP1 POP PUSH2 0x3D3 PUSH1 0x0 DUP4 ADD DUP5 PUSH2 0x3AF JUMP JUMPDEST SWAP3 SWAP2 POP POP JUMP INVALID PUSH1 0x80 PUSH1 0x40 MSTORE CALLVALUE DUP1 ISZERO PUSH2 0x10 JUMPI PUSH1 0x0 DUP1 REVERT JUMPDEST POP PUSH2 0x122 DUP1 PUSH2 0x20 PUSH1 0x0 CODECOPY PUSH1 0x0 RETURN INVALID PUSH1 0x80 PUSH1 0x40 MSTORE CALLVALUE DUP1 ISZERO PUSH1 0xF JUMPI PUSH1 0x0 DUP1 REVERT JUMPDEST POP PUSH1 0x4 CALLDATASIZE LT PUSH1 0x28 JUMPI PUSH1 0x0 CALLDATALOAD PUSH1 0xE0 SHR DUP1 PUSH4 0x39C117A4 EQ PUSH1 0x2D JUMPI JUMPDEST PUSH1 0x0 DUP1 REVERT JUMPDEST PUSH1 0x33 PUSH1 0x35 JUMP JUMPDEST STOP JUMPDEST PUSH1 0x0 PUSH1 0x73 JUMPI PUSH1 0x40 MLOAD PUSH32 0x8C379A000000000000000000000000000000000000000000000000000000000 DUP2 MSTORE PUSH1 0x4 ADD PUSH1 0x6A SWAP1 PUSH1 0xCE JUMP JUMPDEST PUSH1 0x40 MLOAD DUP1 SWAP2 SUB SWAP1 REVERT JUMPDEST JUMP JUMPDEST PUSH1 0x0 DUP3 DUP3 MSTORE PUSH1 0x20 DUP3 ADD SWAP1 POP SWAP3 SWAP2 POP POP JUMP JUMPDEST PUSH32 0x4572726F72206D65737361676500000000000000000000000000000000000000 PUSH1 0x0 DUP3 ADD MSTORE POP JUMP JUMPDEST PUSH1 0x0 PUSH1 0xBA PUSH1 0xD DUP4 PUSH1 0x75 JUMP JUMPDEST SWAP2 POP PUSH1 0xC3 DUP3 PUSH1 0x86 JUMP JUMPDEST PUSH1 0x20 DUP3 ADD SWAP1 POP SWAP2 SWAP1 POP JUMP JUMPDEST PUSH1 0x0 PUSH1 0x20 DUP3 ADD SWAP1 POP DUP2 DUP2 SUB PUSH1 0x0 DUP4 ADD MSTORE PUSH1 0xE5 DUP2 PUSH1 0xAF JUMP JUMPDEST SWAP1 POP SWAP2 SWAP1 POP JUMP INVALID LOG2 PUSH5 0x6970667358 0x22 SLT KECCAK256 0xCA CREATE2 PC 0xC7 0x4B PUSH6 0xC41FB47083B9 0xC3 ORIGIN 0xDB 0x4B COINBASE DIFFICULTY 0xEC SGT SWAP5 SAR 0xD8 0xD1 PUSH19 0x657807D0B2826E64736F6C634300080F0033A2 PUSH5 0x6970667358 0x22 SLT KECCAK256 SWAP2 0x1E MUL PC SWAP14 0xDB BASEFEE DUP16 0xC8 0xC9 PUSH8 0x2D0C56CCECE451CC 0x4A DUP6 0xAC BASEFEE PUSH21 0x7BC642A50BABFE7664736F6C634300080F00330000 "
				},
				"gasEstimates": {
					"creation": {
						"codeDepositCost": "272200",
						"executionCost": "312",
						"totalCost": "272512"
					},
					"external": {
						"catchTheError()": "infinite"
					}
				},
				"methodIdentifiers": {
					"catchTheError()": "9e957cf8"
				}
			},
			"storageLayout": {
				"storage": [],
				"types": null
			},
			"userdoc": {
				"kind": "user",
				"methods": {},
				"version": 1
			}
		}
	}
}